:020000040800F2
:10000000000003205D060008192300081B230008D8
:100010001D2300081F230008212300080000000002
:100020000000000000000000000000002172000835
:100030002323000800000000B1720008496B00088B
:10004000AD060008AD060008AD060008AD060008C4
:10005000AD060008AD06000825230008AD0600081F
:10006000AD060008AD060008AD060008AD060008A4
:10007000AD060008AD060008AD060008AD06000894
:10008000AD060008AD060008AD060008AD06000884
:10009000AD060008AD060008AD060008AD06000874
:1000A000AD060008AD060008AD060008AD06000864
:1000B000AD060008AD060008AD060008AD06000854
:1000C000AD060008AD060008AD060008AD06000844
:1000D000AD060008AD060008AD060008AD06000834
:1000E000AD060008AD060008AD060008AD06000824
:1000F000AD060008AD060008AD060008AD06000814
:10010000AD060008AD060008AD060008AD06000803
:10011000AD060008AD0600082D230008AD06000856
:10012000AD060008AD060008AD060008AD060008E3
:10013000AD060008AD060008AD060008AD060008D3
:10014000AD060008AD060008AD060008AD060008C3
:10015000AD060008AD060008AD060008AD060008B3
:10016000AD060008AD060008AD060008AD060008A3
:10017000AD060008AD060008AD060008000000004E
:10018000AD060008AD060008AD060008AD06000883
:10019000AD060008AD060008AD060008AD06000873
:0C01A00039230008AD06000845230008C4
:1001B00010B5054C237833B9044B13B10448AFF3A1
:1001C00000800123237010BD800300200000000088
:1001D000CC3F020808B5034B1BB103490348AFF3FA
:1001E000008008BD0000000084030020CC3F02080E
:1001F00001F0FF01102A2BDB10F0070F08D010F8D8
:10020000013B013A8B422DD010F0070F42B3F6D1DB
:10021000F0B441EA012141EA014122F007047FF0F4
:1002200000070023F0E80256083C85EA010586EA4B
:10023000010685FA47F5A3FA87F586FA47F6A5FA87
:1002400087F68EB9EED1F0BC01F0FF0102F0070293
:1002500032B110F8013B013A83EA010313B1F8D13E
:100260000020704701387047002D06BF354603381F
:10027000073815F0010F07D1013015F4807F02BF58
:10028000013015F4C03F0130F0BC0138704700BFA9
:100290007BB972B90029BEBF00204FF0004106E0D3
:1002A00008BF00281CBF6FF000414FF0FF3000F086
:1002B000D3B9ADF1080C6DE904CE002909DB002BA0
:1002C0001ADB00F04DF8DDF804E0DDE9022304B0AC
:1002D0007047404261EB4101002B1BDB00F040F80E
:1002E000DDF804E0DDE9022304B0404261EB4101A6
:1002F000524263EB43037047524263EB430300F007
:100300002FF8DDF804E0DDE9022304B0404261EBA0
:1003100041017047524263EB430300F021F8DDF8DE
:1003200004E0DDE9022304B0524263EB430370476B
:1003300053B94AB9002908BF00281CBF4FF0FF314C
:100340004FF0FF3000F088B9ADF1080C6DE904CE34
:1003500000F006F8DDF804E0DDE9022304B07047A0
:100360002DE9F047089D0F4604468C46002B48D1E6
:100370008A42164661D9B2FA82F34BB1C3F1200228
:1003800001FA03FC20FA02F29E4042EA0C0C9C4067
:100390004FEA164EB7B2BCFBFEF1220C0EFB11CC9D
:1003A00042EA0C4201FB07F0904209D9B21801F170
:1003B000FF3C80F0EE80904240F2EB800239324404
:1003C000121AA4B2B2FBFEF00EFB102244EA024461
:1003D00000FB07F7A74209D9341900F1FF3280F07A
:1003E000DA80A74240F2D7803444023840EA014024
:1003F000E41B00211DB1DC400023C5E90043BDE83A
:10040000F0878B4206D90DB1C5E9000100210846ED
:10041000BDE8F087B3FA83F1002948D1BB4202D38B
:10042000824200F20781841A67EB0302012094469E
:10043000002DE4D0C5E9004CE1E7002A00F09280ED
:10044000B2FA82F3002B40F0A8808A1A4FEA164EC7
:100450001FFA86FC0121200CB2FBFEF70EFB1722CF
:1004600040EA02420CFB07F0904207D9B21807F1AC
:10047000FF3802D2904200F2E2804746121AA4B23C
:10048000B2FBFEF00EFB102244EA02440CFB00FC1F
:10049000A44507D9341900F1FF3202D2A44500F275
:1004A000CB801046A4EB0C0440EA0740A2E7C1F160
:1004B00020068B4022FA06FC4CEA030C07FA01F4F2
:1004C00020FA06F3F7404FEA1C49234300FA01F8EB
:1004D0001FFA8CFEB7FBF9F01C0C09FB107744EAFD
:1004E000074400FB0EF7A74202FA01F20AD91CEBFF
:1004F000040400F1FF3A80F09B80A74240F298800C
:1005000002386444E41B9FB2B4FBF9F309FB1344C3
:1005100047EA044403FB0EFEA64509D91CEB04047C
:1005200003F1FF3780F08280A6457FD9023B644407
:1005300043EA0040A4EB0E04A0FB02E7BC42734672
:10054000B94663D360D05DB1B8EB030264EB090434
:1005500004FA06F622FA01F31E43CC40C5E9006412
:1005600000214CE76208480842EAC1710B0C43EADB
:1005700000438AB242EA0342B3FBF6F1E407B44611
:100580003746B6461F23B0FBF6F0D21B41EA0041C6
:1005900061E7614614E7104628E7C3F1200120FA1D
:1005A00001F29E4027FA01F19F403A434FEA164E6E
:1005B0001FFA86FCB1FBFEF70EFB1710110C41EA87
:1005C000004107FB0CF8884504FA03F43AD9711886
:1005D00007F1FF3001D288451FD8A1EB0801B1FB1C
:1005E000FEF808FB0CF70EFB181192B242EA01422A
:1005F000BA422FD2B21808F1FF31C6D2BA42C4D2E1
:10060000A8F102013244C0E7F0459CD2BEEB0203E0
:1006100067EB0C070138B94695E7A6EB080841449B
:10062000B81EB1FBFEF808FB0CF7DCE73B467FE7A2
:10063000504667E70846FBE63444023832E7023F9B
:1006400032441BE7A1EB08013846B1FBFEF808FB7A
:100650000CF7C8E7414698E7704700BFDFF834D091
:10066000002103E00C4B5B58435004310B480C4B0A
:1006700042189A42F6D30B4A02E0002342F8043BA8
:10068000094B9A42F9D303F0EFFF22F037FF01F054
:1006900087F870470000032020350B080000002079
:1006A0006C01002080030020F0370120FEE7704736
:1006B00008B500F0BBFDBDE8084000F03DBD00F00E
:1006C000B7BD704710B50421044621F01DFC20463B
:1006D00010BD000038B50C4B0C4C18800C4B822020
:1006E00019806368984740F6110398420AD1094D72
:1006F00023682C60822098472B688220DB6898470B
:10070000002038BD0120FCE7A60300205400002093
:10071000A4030020A80300204FF4A071F020FFF7ED
:10072000D9BF0000F7B5394D2B6804461B698220FC
:100730009847208000284FD02B680DF106025B6996
:1007400001A982209847324BBDF806201B78002B68
:100750004AD040F674639A4240D9ADF80630BDF8ED
:1007600006209B1A9AB20A2A42D90B23B2FBF3F253
:10077000284B1B889A4201D9013B9AB2BDF804303C
:10078000254840F6B8318B4234D8C3F571630E3337
:1007900001689BB20F25B3FBF5F3204D2D88AB42CA
:1007A00084BF05F1FF35ABB28B421D468EB22AD90C
:1007B0009B1B99B21A4F3E68B3B2B2428CBFD31A98
:1007C0009B1A9BB219440529C8BF05600368C4BFC2
:1007D0003A6016466380A68003B0F0BDB32A9CBF82
:1007E000B422ADF80620BAE7A2F5B47292B2BAE725
:1007F0000022C3E7C3F56D6308339BB20E2B01687B
:10080000C8D800252B46C91A89B2D3E7A80300200F
:10081000381A0020A4030020A0030020A603002013
:100820009C03002037B568460D461446FFF77AFF53
:10083000BDF8000030B1BDF802302B60BDF80430C7
:100840002360012003B030BD032821D8DFE800F089
:10085000020B12190F4B1A68B2FA82F252090421E4
:100860000D4804F095B90B4B5A68B2FA82F252095E
:100870000821F5E7074B9A68B2FA82F25209102173
:10088000EEE7044BDA68B2FA82F252092021E7E778
:10089000704700BFAC03002000100240032821D89D
:1008A000DFE800F0020B12190F4B1A68003A18BF6C
:1008B000012204210D4804F06BB90B4B5A68003A31
:1008C00018BF01220821F5E7074B9A68003A18BFC4
:1008D00001221021EEE7044BDA68003A18BF01222A
:1008E0002021E7E7704700BFAC0300200010024062
:1008F00003280DD8DFE800F00206080A04210548A5
:1009000004F04BB90821FAE71021F8E72021F6E7B7
:10091000704700BF0010024008B5032811D8DFE877
:1009200000F0020A0C0E0421074804F02BF9431EC4
:100930005842584108BD0821F6E71021F4E720216C
:10094000F2E70020F3E700BF0010024070B5084D49
:1009500000240126E0B2FFF7DFFF18B12B68012B5E
:1009600018BF2E600134052C05F10405F2D170BDCD
:10097000AC030020012380F8781080F879307047AC
:100980007047002070470000034B4164003918BFD6
:1009900001211970704700BFAF2A01207047002065
:1009A0007047836B0BB10846184770474FF6FF70CE
:1009B0007047406803689B691847704770477047E5
:1009C0007047704710B5044600F048FD236803499E
:1009D000D3F890302046BDE810401847000000D002
:1009E00008B503680446D3F8843098472368204646
:1009F000DB6F984700F0ECF8236820465B6F984760
:100A0000292001F0ADF900F0E3F8236820465B6F80
:100A10009847F8E710B5044609F0F6F92368204630
:100A2000D3F8BC30BDE81040184700F0FBBC00F024
:100A3000FFBC00F031BD00F0D1BC00F041BD00F0C2
:100A400049BD00F0D5BC08F00DBC10B584210446AA
:100A500021F05AFA204610BD10B590F8341090F8E5
:100A600078400C4B8C421A7809D03AB90A4A0B49A3
:100A70001488088810800C8001221A7010BD002A8A
:100A8000FCD0054A05491488088810800C80002293
:100A9000F3E700BFA82A0120A42A0120A62A0120EA
:100AA00070B50D46194635B9094B0A4A0A4840F255
:100AB000FF2122F071FAC0E90F52084B003A18BF2B
:100AC00001221A700368BDE87040D3F890301847CF
:100AD0003C40020874400208C2400208AE2A0120CD
:100AE00008B5094B1B888B4203D8084B1B889342DF
:100AF00005D9074B074A0848A32122F04DFA074BB6
:100B00001980074B1A8008BDA42A0120A62A0120BB
:100B1000074102086A410208C2400208AA2A0120CD
:100B2000AC2A0120034690F87A0018B1586803688F
:100B30001B68184770470000012108B500220846CD
:100B400006F08CF80A4B186028B90A4B0A4A28218B
:100B50000A4822F021FA00220421012006F01CF9A3
:100B6000074B186018B9074B034A2C21F0E708BD62
:100B7000C0030020AD410208F641020825420208E8
:100B8000BC0300206D420208024B4FF0FF31186891
:100B900006F0AEB8C0030020014B186806F0D4B8C8
:100BA000C0030020024B0021186806F0A1B800BF66
:100BB000C0030020FFF7F0BF03480449006800238A
:100BC0001A4606F024B900BFBC0300200400002030
:100BD00013B5084C00231A4601A9206806F048F90D
:100BE00020684FF0FF33002201A906F041F902B05E
:100BF00010BD00BFBC03002003685B6C18470120D8
:100C0000704703689B6A1847FEE740F2EF30704771
:100C1000054B0360054B4FF08062C3F88820BFF39B
:100C20004F8FBFF36F8F70478C4D020800E100E0DB
:100C300010B504464FF45A61FFF7EAFF204621F051
:100C400063F9204610BD000082B0002301930E4BD3
:100C50001A6B42F400021A631A6B02F4000201924A
:100C6000019A1A6942F400021A611A6922F4000218
:100C70001A61064B064A1A61064A5A61064B4FF042
:100C800080629A6002B0704700380240CC1B00209E
:100C9000E50E0008090C000800E100E008B50A288C
:100CA00009D8DFE800F006100E0808080810101038
:100CB0001000022008BD054B054A0648902122F08D
:100CC0006BF90020F6E70120F4E700BFAF4202080D
:100CD000CA4202081543020870B50C46887FFFF728
:100CE000DDFFA18AE28A164B2569586342EA014278
:100CF0005A64628BDD63521A1A642668E168082E12
:100D00000DD19A611A615862207F0E4A42EA006250
:100D1000DA610D4A19625D61DD601A6070BD002202
:100D2000D8611A6148090A0A02F4784200F4FC60AA
:100D30000243C1F3C4010A439A63044AEDE700BFCA
:100D400000B002400900010001230200012303005A
:100D500008B50B280BD8DFE800F00612100A0A0AC3
:100D60000A0808080808022008BD0520FCE7054B12
:100D7000054A06486F2122F00FF90020F4E7012010
:100D8000F2E700BFAF4202085B43020815430208C6
:100D90002DE9F04191F81D800C464046FFF7D8FF41
:100DA000A77F05463846FFF7D3FF06463846FFF7CC
:100DB00075FFA18A628B454B521A1A649A61228B85
:100DC000521A1A61E28A586342EA01425A6421695E
:100DD0006268D963DA60D4F800C0207FBCF1800F6C
:100DE0004FEA006229D013D8BCF1200F45EA020077
:100DF00064D0BCF1400F61D0BCF1040F5ED0334B26
:100E0000154345F40035B845DD615BD0304A40E01C
:100E1000BCF5807F07D0BCF5007FF0D142F40032F2
:100E200042F0090203E042F4003242F00A02DA61C1
:100E3000E2681A625E6259612AE0A4682A4342F4B9
:100E40000032271DDF62DA6122785E62596142B1A9
:100E5000012A21D01F4B204A20484FF48D7122F0E7
:100E60009BF8DA69618822F47F42013922F010028E
:100E700042EA0122DA610121144BDA6942F02002D0
:100E8000DA61DA699206FCD410229A600029BDD09A
:100E9000134A1A60BDE8F081DA69B0F1FF01608899
:100EA00022F47F4200F1FF3022F0100242EA0022D9
:100EB00042F0100218BF0121DA61DDE740F4003092
:100EC000D861B7E742F20132E3E700BF00B0024069
:100ED00001230100A5430208BF430208154302088D
:100EE00001230200024B1B68586803685B691847BE
:100EF000B02A012070B5044625460A4B0C30002666
:100F000060602672667245F8203B6022294609F02F
:100F1000D1F804F55A63EE6024359D42FBD120469A
:100F200070BD00BF8C4D0208034B1A68D207FCD479
:100F300023229A60704700BF00B002407047000053
:100F400030B50F4C2568ED07FCD423250904A560B6
:100F500041F001010225FF2B65636164E0630AD063
:100F60000849656241EA0363E361074B22626061FD
:100F7000E060236030BDE561039BA363034BF8E7AA
:100F800000B002400900010001000200010003005E
:100F900030B50E4C2568ED07FCD423251204A5605E
:100FA00042F001020225FF2B65636264E063E160A9
:100FB00008D01B0643F00213E361054B65626061D4
:100FC000236030BD034BE3610123F9E700B0024029
:100FD00001000200020002FF30B50B4C2568ED074E
:100FE000FCD4232512041B06A56043F4003302251C
:100FF00042F0010265636264E063E160E361034B18
:1010000065626061236030BD00B0024001000200F3
:10101000012070470C2070470C2303FB01000830AF
:1010200070470C2303FB0100083070470120704714
:1010300040F21C50704740F21C5303FB0100083083
:10104000704740F21C5303FB010008307047012039
:1010500070471020704700EB01100830704700EB1C
:10106000011008307047084601F012BC10B5034B60
:101070000360044607F04BFE204610BD444E0208B4
:1010800010B50446FFF7F2FF2046142120F03CFF84
:10109000204610BD10B5034B0360044607F037FE31
:1010A000204610BD104E020810B50446FFF7F2FFAF
:1010B000204640F2245120F027FF204610BD0000BA
:1010C00010B5034B0360044607F021FE204610BD17
:1010D000DC4D020810B50446FFF7F2FF2046182148
:1010E00020F012FF204610BD10B5084B03600446E7
:1010F00000F5AA60FFF7BAFF04F12C00FFF7CAFF62
:1011000004F11400FFF7DCFF204610BD784E020802
:1011100008B50248FFF7E8FF08BD00BF9C12002099
:1011200010B50446FFF7E0FF20464FF4D96120F0E8
:10113000EBFE204610BD0000F7B501F07BF9054637
:1011400001F07CF9002401460094234622462846FB
:1011500011F028FE284B294A1A60204602F0B8FBFD
:10116000274B284A28489A6011F084FD274C2368B1
:10117000BFF35B8FDB0738D4204620F0C7FE002882
:1011800033D0234A234B136002F12C0702F26C5533
:1011900002F5AA6602F1140097605060D6601561EE
:1011A00007F0B6FDA5F26C5238461B4B53612C3F3D
:1011B00007F0AEFD194BFB62304607F0A9FD184B56
:1011C000C7F8503507F2645002F054FF3A4607F270
:1011D0006451284602F0FAFB284601F059FB1148F9
:1011E00021F0F8FE204620F09DFE0F4803B0BDE838
:1011F000F040FFF7E7BB00BF142B0120480400209C
:10120000680400204C0400200800002098120020F0
:101210009C120020784E0208DC4D0208104E020895
:10122000444E020811110008C4030020704700005A
:101230000148FFF7D5BB00BFC403002070B5264EA0
:10124000264C274D274B23603046FFF753FE284698
:1012500016F0AEFE24480FF093FA244B2448DC60CD
:1012600000224FF48071C3E9121222491A86C3E9A1
:101270001A12214983F85820C3E91E011F49C3F8F7
:1012800080101F491F480B60F021C3E90422C3E905
:101290000622C3E90822C3E90A22C3E90E22C3E9F0
:1012A0001022C3E91422C3E917225A6683F870207A
:1012B0005A67C3E9016501801348018013484FF460
:1012C000A07101801248018012490A70012283F83E
:1012D0003420114A1A6070BDF404002094120020DA
:1012E000680400202C4002084C040020C4030020A5
:1012F0000000010101000001000450001A00140068
:10130000B02A0120A42A0120AA2A0120A62A01200D
:10131000AC2A0120A82A0120A04C02080148FFF7AE
:1013200077BC00BFF4040020002070478180704724
:10133000C180704701817047418170477047704795
:1013400070477047704710B4C4880368121B8488C4
:101350005B6D091B12B25DF8044B09B218474FF6DA
:10136000FF7383814FF0FF3303621368C361106022
:101370007047002070478B8883800120704770473A
:1013800080F82610704790F82600704710B50022AC
:10139000B1F90840B1F90A10028042808480C1800E
:1013A00010BD0022028042808280C2807047017797
:1013B000704780ED080A704780F82410704780F865
:1013C0002510704701207047983070478C30704767
:1013D000843070477047704770470000034B90227D
:1013E00083F85A2383F85823704700BF00E100E0D8
:1013F000094A0A49D3680A48C3F30A03013B9BB26E
:101400000B801169C1F30A01013901801364536B28
:1014100043F00103536370470068014066190020E0
:1014200064190020014BD3F8AC00704700680140FC
:10143000024B0122C3F8AC105A62704700680140A9
:1014400010B52C21044620F05FFD204610BD10B5DC
:10145000BC21044620F058FD204610BD70B504465E
:1014600007F055FF23689D6E0DF022FF01462046D0
:10147000A8472368054AD3F88C502046AC46002381
:10148000BDE87040A2F51631604700BF00B004D03F
:1014900007F024BF07F02EBF07F0EABE08F059B8E6
:1014A00090F8252012B103685B691847704790F8DF
:1014B00025201AB190F8242002B11860704700006E
:1014C000034B4FF080629A604FF080729A607047D1
:1014D00000E100E0084B4FF08062C3F88820BFF3C2
:1014E0004F8FBFF36F8F4FF08072C3F88820BFF328
:1014F0004F8FBFF36F8F704700E100E070B500239E
:10150000124E8380124B0360336893F858200546CF
:101510000AB1D86C00B998680368DB6A98473368E9
:10152000B0FA80F4D86C640930B10368DB6A98477C
:10153000002808BF44F001042CB9064B064A0748AE
:101540002C2121F029FD284670BD00BFB02A0120C2
:101550008C4E0208FD4302085B44020894440208D2
:1015600070B5254E3568BFF35B8F15F0010540D18E
:10157000304620F0CBFC00283BD0204C204B25618E
:1015800004F13400C4E90035C4E90255E584A562DC
:10159000A5850FF0DAFB04F158000AF041FA194B67
:1015A000A3652046184B40F8843BFFF7A7FF174B75
:1015B000C4F884302433C4F88C304FF4C803C4E931
:1015C00028350023C4F8AC30C4F8B030C4F8B430C7
:1015D000C4F8B8300E480F4BC4F89050C4F89C5073
:1015E000C4F8A850C4F8983021F0F4FC304620F03C
:1015F00099FC024870BD00BF681900206C190020DA
:1016000090550208AC4E0208244F020844550208C7
:10161000D91300082455020838B5184C23685BB369
:10162000174B184A1B6C11888B4216D1164B198820
:1016300004F0AEF8236893F86A200025013283F89D
:101640006A2083F87C50FFF7B7FA206808F0DCFBCB
:101650002846BDE83840FFF7F7B804F099F8246849
:10166000236820461B6A9847012384F87C300020B9
:10167000BDE83840FFF712B938BD00BFB02A0120DD
:1016800000680140661900206419002007B5064B68
:10169000ADF806001B68054801220DF1060104F0B3
:1016A00017FE03B000BD00BF0C000020781A002018
:1016B00008B54FF0FF3005F0C5FAFAE707B50F4D52
:1016C00028684FF0FF3300220DF1070105F0D0FB31
:1016D00004460028F4D19DF80720012AF0D180218A
:1016E000074803F055FA4FF4FA7005F0ABFA0448D6
:1016F0002246802103F04CFAE2E700BF301A0020B6
:10170000000C024030B595B0102200210AA821F04B
:101710004DFE1422002103A821F048FE00241E4B98
:1017200001941A6C42F080521A641B6C03F08053CF
:101730000193019B194B02941A6842F440421A60CB
:101740001B6803F4404302930122029B4FF4803351
:10175000CDE9082302254FF480030821CDE90E537B
:101760004FF4B473CDE9101308A804231393129512
:1017700004F066F804F02AF80F23CDE903354FF49E
:10178000A0504FF48053CDE90603052103A805942A
:1017900004F032FA15B030BD00380240007000404D
:1017A00080B59AB002F06EFFFFF7ACFF1422002163
:1017B0000DA821F0FBFD0024C04B00941A6BC0481B
:1017C00042F010021A631A6B02F010020092009AA3
:1017D00001941A6B42F020021A631A6B02F0200285
:1017E0000192019A02941A6B42F080021A631A6BFA
:1017F00002F080020292029A03941A6B42F00402F1
:101800001A631A6B02F004020392039A04941A6B8F
:1018100042F001021A631A6B02F001020492049A68
:1018200005941A6B42F002021A631A6B02F002026C
:101830000592059A06941A6B42F040021A631A6BDD
:1018400002F040020692069A07941A6B42F00802D0
:101850001A631B6B03F00803224607933C21079B86
:1018600003F096F997480122022103F091F92246EC
:101870009448042103F08CF9224693484FF44051D8
:1018800003F086F901253C23CDE90D358C480F94F2
:1018900003230DA90226109303F090F889480DA99F
:1018A000CDE90D65CDE90F4403F088F804238548A0
:1018B0000DA9CDE90D35CDE90F4603F07FF84FF4C2
:1018C000881382480D950DA9CDE90E3603F076F800
:1018D00040237D480DA9CDE90D35CDE90F64802762
:1018E00003F06CF878480DA9CDE90D75CDE90F44EA
:1018F00003F064F822463946734803F049F94FF47F
:10190000405371480DA9CDE90D35CDE90F4603F0DF
:1019100055F805212246062002F006FF062002F0B7
:1019200035FF6B4A6B4B1360104602F03DFF6A4A6D
:101930006A4B13606A4BD460C2E9013410464FF41D
:101940008043C2E90434C2E90644146203F046FB52
:101950001021614803F088FD21465F4803F0A3FD94
:10196000604A614B13604FF482734FF4007EC2E90A
:1019700001341823C2E906E310460A23C2E90344EE
:10198000C2E9084454619462D36204F045FC8F2399
:10199000224631464B488DF824308DF8344003F010
:1019A000F7F82A464FF47A7309A94E4804F090FCE0
:1019B0004FF47A732A460DA94A4804F035FE2A46A8
:1019C0003146404803F0E4F89DF83430474AD32BC1
:1019D00004BF474B1D70474B13604FF004081023A2
:1019E000C2E9038340214FF4C0730024C2E9051308
:1019F0004FF40063C2E908344FF400530125022676
:101A00004FF0030993620DA907231046CDE90F8318
:101A1000CDE90D630827C2E90154CDE91196D461DF
:101A2000139604F0DDFA4FF6FF7209A92F480894C7
:101A3000CDE90A7509950C9404F0F2FA284602F0F3
:101A40004DFE4FF6FF7209A92848CDE90967CDE997
:101A50000B5404F0E5FA4FF6FF7209A92348CDE9CB
:101A60000997CDE90B8404F0DBFA4FF40C7308936B
:101A7000089B1E480C934FF6FF7209A9CDE9098710
:101A80000B9504F0CDFA40F26A51184804F0E6FADA
:101A9000342221460DEB020021F088FC164A174B38
:101AA0001461C2E900340923C2E905351D23C2E9E6
:101AB000073940F20D1040F2431321E00038024094
:101AC0000010024000080240000C024000000240EA
:101AD0000C1C002000300240781B0020005C0040FD
:101AE000A0860100781A002000500140441A00200E
:101AF000381A0020400100A0D01A002000680140E0
:101B000040F2171CC2E9090340F247131046C2E92C
:101B10000BC3C2E90244948682F8364003F056FDB6
:101B2000FF21F0224FF00508CDE912144FF4806137
:101B30004FF4A073CDE90E24CDE91418CDE9164277
:101B40000DA922462D48DFF8EC901893CDE9103608
:101B50000D94ADF864408DF8664003F0EBFD284B22
:101B6000C9F800301B689847D9F80030DB689847FF
:101B7000244A254B1046C2E90034C2E90264C2E996
:101B80000A46C2E90C4402F01FFE29461D4802F035
:101B9000D1FEFEF78DFDFEF78AFD04F0E3FF22463D
:101BA0002946404605F0F8F8184B224618602946A9
:101BB000404605F0F1F8164B164A186021461648C3
:101BC00004F0FCFF154B164A18602146154804F036
:101BD000F5FF154B2022186021460EA821F0E6FBE8
:101BE000124B0D930DAA4FF4007321461048CDE916
:101BF000123704F0E3FF04F0C7FFFEE7D01A00201D
:101C00001C000020CC1B002000B00240341A002031
:101C1000301A00208C4F0208B1160008401A00202C
:101C2000684F0208BF0600083C1A0020F64402086C
:101C3000BD1600082C1A0020012873B5054612D1E4
:101C40000A4E02F045FD3368C31A962B044609D9A3
:101C500007488DF80750002300681A460DF1070168
:101C600005F0D5F8346002B070BD00BF281A00201E
:101C7000341A0020704770477FB5084B8DF8172045
:101C80001B6802930DF117020123009201930A468B
:101C90000146034803F04AFA07B000BD10000020D7
:101CA000781B00207FB500238DF81730084B1B6888
:101CB00002930A4601230DF1170100910193014699
:101CC000044803F0C3FA9DF8170007B000BD00BF39
:101CD00010000020781B00201FB5084C24680092DB
:101CE000CDE901340A4601230146054803F0AEFA66
:101CF000003818BF012004B010BD00BF1000002044
:101D0000781B002002F0EABC08B506480022042136
:101D100002F03EFFBDE8084002480122042102F023
:101D200037BF00BF0008024010B5012204464FF43F
:101D30000051094802F02CFF00220421074802F05C
:101D400027FF2046FFF7A2FCBDE810400348012210
:101D5000042102F01DBF00BF000C02400008024039
:101D600010B5002204464FF40051094802F010FF5C
:101D700000220421074802F00BFF2046FFF786FCF3
:101D8000BDE8104003480122042102F001BF00BF5A
:101D9000000C02400008024037B505460C461248C8
:101DA0000022042102F0F4FE00224FF400510F48FB
:101DB00002F0EEFE2846FFF769FC0D4B0D481B684C
:101DC000224601A904F030FC0848019C01224FF48E
:101DD000005102F0DDFE04480122042102F0D8FE89
:101DE000204603B030BD00BF00080240000C024096
:101DF0000C000020781A002002F070BC0268034B2F
:101E00009A4201D102F058BC704700BF0010004058
:101E10007047000082B00E4B00220092596C41F4D2
:101E200080415964596C01F48041009100990192FC
:101E3000196C41F0805119641B6C03F080530193BD
:101E4000019B0F216FF0010002B002F06DBC00BFDA
:101E5000003802400268094B9A4282B00BD100233D
:101E60000193074B1A6B42F480521A631B6B03F405
:101E700080530193019B02B0704700BF00300240C5
:101E80000038024007B50E4B02689A4216D1002274
:101E9000A3F5F0430192196B41F4000119631B6B28
:101EA00003F40003019305215A20019B02F03CFC3E
:101EB0005A2003B05DF804EB02F068BC03B000BD2B
:101EC00000B002402DE9F043044689B014220021FD
:101ED00003A821F06BFA2268244B9A4243D1244C88
:101EE000244800250095236B43F004032363236BF0
:101EF00003F004030093009B0195236B43F001035F
:101F00002363236B03F001030193019B4FF012093C
:101F10004FF400734FF001080327042603A9CDE90D
:101F20000339CDE90587079602F048FD4FF4807329
:101F30001148079603A9CDE90339CDE9058702F0D9
:101F40003DFD0295236C43F400032364236C03F4EA
:101F500000030293029B236A43F400032362236A73
:101F600023F40003236209B0BDE8F083005C004065
:101F7000003802400008024000000240F0B599B06D
:101F800004461422002107A821F010FA30220DEB9C
:101F90000200002121F00AFA22685E4B9A4240F0CA
:101FA000B78008230C93C0231093042312930CA82A
:101FB0004FF40033159303F0E7FE08B1FFF728FF55
:101FC000554B5648002400945A6C42F080625A6483
:101FD0005A6C02F080620092009A01941A6B42F0EF
:101FE00020021A631A6B02F020020192019A0294F5
:101FF0001A6B42F001021A631A6B02F0010202929C
:10200000029A03941A6B42F002021A631A6B02F0EE
:1020100002020392039A04941A6B42F040021A637C
:102020001A6B02F040020492049A05941A6B42F073
:1020300004021A631A6B02F004020592059A0694D0
:102040001A6B42F008021A631B6B03F00803069335
:1020500002250E26069B0B964FF4806307A9CDE957
:102060000735CDE9094502F0A9FC41F658032C4893
:102070000B9607A9CDE907350927CDE9094502F0F7
:102080009DFC032327480B9707A9CDE90735CDE928
:10209000094502F093FC4FF4706322480B9607A9A0
:1020A000CDE90735CDE9094502F088FC4FF40C6312
:1020B0001D480B9607A9CDE90735CDE9094502F082
:1020C0007DFCC02319480B9607A9CDE90735CDE95A
:1020D000094502F073FC082315480B9607A9CDE9C2
:1020E0000735CDE9094502F069FC4FF4A0530E48CD
:1020F0000B9707A9CDE90735CDE9094502F05EFC4C
:1021000058202246052102F00FFB582002F03EFB2A
:1021100019B0F0BD006801400038024000140240D0
:102120000000024000040240001802400008024083
:10213000000C024010B5044688B01422002103A808
:1021400021F034F92268144B9A4223D103F56843F5
:10215000002101915A6C114842F480125A645A6C61
:1021600002F480120192019A02911A6B42F020024D
:102170001A631B6B03F020030293029B4FF46072FF
:1021800002230321CDE903230523CDE9061303A987
:1021900002F014FC08B010BD0050014000140240D1
:1021A0002DE9F04186B0002303932B4B1C68002CD3
:1021B0004FD14FF00108C3F80080284B00949A6B70
:1021C000274842EA08029A639B6B03EA08030093DC
:1021D000022703260C25009B01A94FF63F03CDE9FA
:1021E0000137CDE9046502F0E9FB1E48059501A918
:1021F000CDE90187CDE9034602F0E0FB48F2331355
:102200001948059501A9CDE90137CDE9034602F04A
:10221000D5FB4FF683731548059501A9CDE9013724
:10222000CDE9034602F0CAFB4CF203731048059552
:1022300001A9CDE90137CDE9034602F0BFFB6023D8
:102240000C48059501A9CDE90137CDE9034602F017
:10225000B5FB06B0BDE8F081141C00200038024038
:102260000014024000080240001802400010024022
:10227000000C02400004024030B589B000230293F4
:10228000204B1A6C42F010021A641B6C03F010030E
:102290000293054601A903A8029B03F057FD069B84
:1022A0004BBB03F043FD184A184B136040F2E73371
:1022B000D360174BB0FBF3F3013B53601046002390
:1022C00013619360936104F079FB044680B90E4872
:1022D00004F04EFA044658B9362002F057FA0F2D92
:1022E0000DD822462946362002F01EFA094B1D6001
:1022F000204609B030BD03F019FD4000D3E70124AA
:10230000F6E700BF00380240181C00200010004013
:1023100040420F00840000207047FEE7FEE7FEE722
:10232000FEE77047012002F041BC0000014804F0C4
:102330005DBA00BF181C0020014803F09EB900BF21
:10234000D01A0020014802F06BBA00BFCC1B00205D
:102350000120704708B521F0CBF8162303604FF039
:10236000FF3008BD08B521F0C3F816230360FEE76F
:1023700070B50D4614460E46731B9C4201DC204688
:1023800070BDAFF3008006F8010BF5E770B50D46A0
:1023900014460E46731B9C4201DC204670BD16F8A5
:1023A000010BAFF30080F5E74FF0FF3070474FF4BB
:1023B00000534B6000207047012070470020704799
:1023C000094A08B50346106808B908481060034474
:1023D00069468B4206D921F08BF80C2303604FF03D
:1023E000FF3008BD1360FCE7601C0020F0370120BF
:1023F000704708B5052914D8DFE801F003070B0F73
:102400000B0F01F0B1FA006808BD01F0ADFA4068A9
:10241000FAE701F0A9FA8068F6E701F0A5FAC068CA
:10242000F2E70020F0E710B5042104461FF06CFD30
:10243000204610BD00487047C44F0208082070476E
:1024400013B5002451B1036801948DF8034001AA2B
:102450009C680DF10303A04702B010BD0846FBE7DE
:10246000C0897047008A7047C0887047808870476D
:10247000807A00F07F007047807AC00970470020A2
:10248000704700009FED010A704700BF0000000088
:10249000704710B5082104461FF036FD204610BDD8
:1024A0007047704700F598730868496803C3704720
:1024B000704770474160704770477047064BC0F8DF
:1024C0004C310023C0F8503100F5A273C0F8480128
:1024D000C0F84031704700BFC526000801230372D1
:1024E00070477047D0E90232416810B4541001EBD4
:1024F0006200D20748BF0A595DF8044B48BFD35861
:1025000018470346406830B19A681AB9D86800F095
:10251000010070470120704710B50C2104461FF0E0
:10252000F3FC204610BD10B5102104461FF0ECFC52
:10253000204610BD10B54FF4AE7104461FF0E4FC08
:10254000204610BD10B50CF0B3FE0368BDE8104086
:10255000DB6B184710B50446D0F8400158B103684A
:10256000DB68984738B1D4F8400103689B68984706
:102570000023C4F8403110BD2DE9F14FD0E9556A70
:102580000746B06803681B6A984740F21B5398429D
:1025900005D8444B444AA321444820F0FDFC706810
:1025A00003681B6A98470F2803D8414B3E4AA42171
:1025B000F2E7F06803681B6A98470B2803D83D4B85
:1025C000394AA521E8E70CF073FEDFF8F0900430FB
:1025D0000CF093FED9F8000010B10368DB6898474F
:1025E000D9F8000010B103681B689847DFF8D08065
:1025F000D8F8000010B103685B699847D7F83C0130
:1026000010B103685B689847D8F8000010B1036800
:102610001B689847D7F83C0110B103689B6898473E
:10262000F068036800215B6A98474FF0000B224B6B
:10263000C0F804B0044680F808B00360B0680368CE
:1026400059465B6A9847054601F0FCF970680368D3
:1026500059465B6A98472946064601F0CFF9331D73
:10266000C7F83C61C9F80040C8F80050CAF800300B
:102670002B68C6F808A02846DB68EE6398473368E5
:1026800030461B689847214628460EF0E3FF236832
:1026900020461B69984723685B69204601B0BDE866
:1026A000F04F184716450208A44502087C46020868
:1026B000C346020866470208E8500208F82A0120CB
:1026C000F42A01202DE9F14FD0E9556A0746B06898
:1026D00003681B6A9847B0F5C87F05D2444B454A4A
:1026E000A321454820F058FC706803681B6A98478E
:1026F0000F2803D8414B3F4AA421F2E7F068036852
:102700001B6A98470B2803D83D4B3A4AA521E8E7B6
:102710000CF0CEFDDFF8F09004300CF0EEFDD9F8AF
:10272000000010B10368DB689847D9F8000010B1C9
:1027300003681B689847DFF8D480D8F8000010B110
:1027400003685B699847D7F83C0110B103685B6880
:102750009847D8F8000010B103681B689847D7F86D
:102760003C0110B103689B689847F068036800213A
:102770005B6A98474FF0000B224BC0F804B0044648
:1027800080F808B00360B068036859465B6A9847F0
:10279000054601F0A7FC7068036859465B6A9847D4
:1027A0002946064601F07AFC331DC7F83C61C9F89A
:1027B0000040C8F80050CAF800302B68C6F808A0DE
:1027C0002846DB68EE639847336830461B689847B5
:1027D000214628460EF03EFF236820461B69984795
:1027E00023685B69204601B0BDE8F04F184700BF81
:1027F00016450208094802087C460208C34602083A
:1028000066470208E8500208F82A0120F42A01204D
:10281000044B1B6893F858200AB1D86C00B998682B
:10282000704700BFB02A0120F8B5174604460E468F
:102830000CF000FE124B1C60124B2360124B002563
:10284000C4E95135114BC4E953551868036829464A
:102850009B68C4E94F55C4E955769847284601F06E
:1028600037F8FFF7D5FF17F04CFAFFF7D1FF17F055
:10287000C3FAFFF7CDFF17F0CBFA2046F8BD00BF33
:10288000042B0120945002087C500208B02A012039
:10289000064BC0F84C310023C0F8503100F5A2734C
:1028A000C0F84801C0F84031704700BFC526000895
:1028B000064BC0F84C310023C0F8503100F5A2732C
:1028C000C0F84801C0F84031704700BF79250008C2
:1028D0007047704770477047704730B5036885B0E0
:1028E000D3F88430018104460146684698479DE844
:1028F00007003C3484E8070005B030BD30B50368FC
:1029000085B0D3F884304181044601466846984733
:102910009DE807003C3484E8070005B030BD002284
:10292000028042808280C280704780F836107047F3
:1029300070B5036804461B6B154698472368294603
:1029400020465B6EBDE87040184700207047806CE1
:1029500070477047704770477047D0E9023230B413
:102960004468551004EB6200D20748BF625930BC7E
:1029700048BFD35818470346406830B19A681AB91F
:10298000D86800F0010070470120704710B54C2155
:1029900004461FF0B9FA204610BD10B510210446B8
:1029A0001FF0B2FA204610BD10B540F2EC410446CB
:1029B0001FF0AAFA204610BD08B5FEF771FD08BD4C
:1029C000036870B55E6B124B1B6804468DB22BB961
:1029D000104B114A6C21114820F0DEFA1049828D0B
:1029E0000988914203D80F4B0B4A6D21F3E713F886
:1029F00012200D4B1B6853F8220003681B6B98478D
:102A0000291A3346204609B2BDE87040184700BF76
:102A1000082B0120E3480208254902086049020802
:102A20000C2B0120A7490208102B012000F578701B
:102A3000884208B505D10CF03BFCBDE80840FFF723
:102A400027BF08BD00224FF0FF31C0E9002182609E
:102A5000704770B5036804461B6B1546984723689A
:102A6000294620465B6BBDE87040184770B50446A8
:102A70001D46BDF91060FFF7ECFF2368294620468C
:102A80009B6B9847236831462046DB6BBDE870405E
:102A9000184700004FF4807100224162054901602F
:102AA000C0E90122C0E90322C0E90522C0E90722EA
:102AB00082627047645402080022C0E90122C0E922
:102AC0000322C0E90522C0E907224FF48072828404
:102AD000014A0260704700BF0C51020810B526225F
:102AE0000446002120F062FC2046FFF7E5FF044B7E
:102AF0002360FF2384F826300023A362204610BD04
:102B00005857020838B5262204460D46002120F009
:102B10004DFC2046FFF7D0FF064B23602B88E38453
:102B2000FF23204684F82830294609F0C2FE2046BB
:102B300038BD00BFC057020810B526220446002148
:102B400020F034FC2046FFF7B7FF0A4B23600A4B06
:102B5000A3624FF6FF73A3854FF47F020023C4E9FD
:102B60000C324FF0FF32C4E910232387E363204681
:102B700010BD00BFC85602086C500208F8B5194BCA
:102B8000018F1B888B4206462AD9174B1B682BB92D
:102B9000164B174A17486C2120F0FEF913F8112044
:102BA000154B1B6853F82250144B186800F0CCFEEC
:102BB0002B6807469B6B284698472B6804469B6CFE
:102BC0003946284698472B6814FB00F45B6A39465F
:102BD00028469847A4B223181BB2A6F84630F8BD81
:102BE0000023FAE70C2B0120082B0120E348020800
:102BF0002549020860490208102B0120142B0120EE
:102C00002DE9F04F04468DB0A24600250EF076FB6C
:102C1000EB4BE5634AF8403B04F16C0950464FF634
:102C2000FF76FFF75BFF04F198080AA9484604F114
:102C3000C407ADF8286008F05BFF0AA94046ADF86C
:102C4000286008F055FF3846FFF724FF0AA904F171
:102C5000F000ADF82860FFF755FF0AA904F58E7063
:102C6000ADF82860FFF74EFF04F5A470FFF736FFBC
:102C700004F5BA70FFF70EFF0AA904F5D070ADF89D
:102C80002860FFF73FFF0AA904F5E67004F5097B09
:102C9000ADF82860FFF736FF04F5FC70FFF71EFF64
:102CA0005846FFF7F7FE0AA904F51470ADF828603E
:102CB000FFF728FF0AA904F51F70ADF82860FFF799
:102CC00021FF04F52A70FFF709FF04F53573184654
:102CD0000393FFF7DFFE04F5407318460393FFF7F5
:102CE0002BFFB84BC4F8003304F553731846C4F8EF
:102CF00048530393FFF720FFB24BC4F84C3304F55D
:102D000066731846C4F894530393FFF715FF04F550
:102D100078731846039309F003FF04F585630AA945
:102D200018460393ADF8286008F0E2FE04F254431D
:102D300018460393FFF700FFA24BC4F85434A24B8C
:102D4000C4F8DC34A14BC4F8E434F0235046C4F892
:102D50009C54C4F8E044C4F8E8542A460093294639
:102D60004FF4A073FFF782FE261D4FF07F42A2664C
:102D70005146304605F0E0FF4FF004014846ADF8FB
:102D800028100AA909F095FDF0232A464846009329
:102D900029464FF4A073FFF769FE4846294608F01C
:102DA00062FE4946304605F0C7FF4FF0030140463A
:102DB000ADF828100AA909F07CFDF0232A46404608
:102DC000009329464FF4A073FFF750FE4046294672
:102DD00008F049FE414630464FF4AA7805F0ACFFB2
:102DE00046233846CDF800806FF022024FF4A571DB
:102DF000FFF73CFEBB22294604F1F000FFF729FE55
:102E00004FF006090AA904F1F000ADF8289009F086
:102E100050FD384604F1F00105F08EFF2A462946A0
:102E200004F58E70FFF715FE4FF007010AA8ADF804
:102E30002810014604F58E7009F03BFD4FF0500A52
:102E4000384604F58E7105F077FF0123CDF800A018
:102E50006E22222104F5A470FFF708FE4FF0FF3226
:102E6000C4F87021384604F5A47184F86D5105F05A
:102E700063FF3946304605F05FFF4623CDF80080FA
:102E80006FF022024FF4A57104F5BA70FFF7EEFD62
:102E9000BB22294604F5D070FFF7DBFD0AA80146E6
:102EA00004F5D070ADF8289009F003FD04F5D07159
:102EB00004F5BA7005F040FF2A46294604F5E6708D
:102EC000FFF7C7FD4FF007010AA8ADF8281001462B
:102ED00004F5E67009F0EDFC04F5E67104F5BA704E
:102EE00005F02AFF4FF0FF3701236E22CDF800A036
:102EF000222104F5FC70FFF7B9FDC4F8207204F537
:102F0000FC7104F5BA7084F81D5205F015FF04F544
:102F1000BA71304605F010FF4623CDF800806FF0FF
:102F200022024FF4A5715846FFF7A0FDBE222946A4
:102F300004F51470FFF78DFD0AA8014604F514701E
:102F4000ADF8289009F0B5FC04F51471584605F069
:102F5000F3FE2A46294604F51F70FFF77AFD4FF06D
:102F60000701ADF8281004F51F700AA909F0A1FCAB
:102F700004F51F71584605F0DFFE01236E22CDF8DF
:102F800000A0222104F52A70FFF770FDC4F8D0726A
:102F900004F52A71584684F8CD5205F0CDFE594605
:102FA000304605F0C9FEF02300932A46FA23232178
:102FB00004F53570FFF75AFD102300936B2207E0EC
:102FC0001C52020874510208045202082D2A0008FB
:102FD0007C231C2104F54070FFF748FDD4F8003332
:102FE000A4F834534FF07F4204AFD3F88430C4F8D0
:102FF000302304F540713846984797E80700DFF81A
:10300000A0A204F54F7383E80700DAF8003004F556
:1030100094682BB99B4B9C4A60219C481FF0BCFFD5
:103020009B4B1B881BB99B4B974A6121F5E79A4B39
:103030002946186800F088FC984A03460A21404651
:103040000FF00AFEC4F848830AA904F54070DFF8BF
:103050005482ADF82C90CDF8288009F09BFA04F545
:10306000407104F5357005F067FE12230093542279
:103070003F234A2104F55370FFF7F8FCD4F84C3392
:10308000A4F880534FF07F42D3F88430C4F87C23F7
:1030900004F553713846984797E80700D4F84C3345
:1030A00004F5627B4FF001098BE80700D3F8843008
:1030B00084F8859304F553713846984797E80700DC
:1030C000DAF800308BE8070004F2B44B002BA1D0F3
:1030D0006F490B884B45A6D96F4B4946186800F0DD
:1030E00033FC6E4A03460A2158460FF0B5FD0AA884
:1030F0000146C4F894B304F553704FF0050BCDF8B6
:103100002880ADF82CB009F045FA04F5537104F5A8
:10311000357005F011FE312300931A22EA230821AD
:1031200004F56670FFF7A2FC4FF07F423846C4F802
:10313000C823A4F8CC5304F5667108F083FF97E820
:10314000070004F5757383E807004FF00700ADF83A
:103150002C000AA8014604F56670CDF8288009F015
:1031600019FA04F5667104F5357005F0E5FD98224D
:10317000082104F57870FFF76CFC0AA8024609A93B
:1031800004F57870ADF82450ADF8289009F05FFA96
:103190004FF00400A4F8180404F57870FFF7EEFC73
:1031A0004FF0FF3704F2DC43C4F8083404F57871BB
:1031B00004F53570C4F81C74C4F8207405F0BCFD27
:1031C00004F53571304605F0B7FD0AA8014604F54F
:1031D0008560ADF828B009F06CFB0F2300936C22DA
:1031E000102104F58560FFF741FC294604F5856050
:1031F00008F039FC04F58561304605F09DFD142387
:103200002A4600932946432304F25440FFF72EFC3C
:10321000DAF80030A4F888544FF07F42C4F8905494
:10322000C4F89854C4F8842484F88D94C4F8947431
:1032300004F59965002B3FF4EDAE15490B88032B7F
:103240007FF6F1AE144B0321186800F07DFB134AA2
:1032500003460A2128460FF0FFFC08230AA904F2BE
:103260005440C4F89C54ADF82C30CDF8288009F0B7
:1032700091F9304604F2544105F05EFD20460DB050
:10328000BDE8F08FE3480208E549020860490208FA
:103290000C2B0120A7490208142B0120304A0208F8
:1032A000082B01206C500208406A7047806A704702
:1032B00070478A880B8810B5D20A4C88C1699BB2C6
:1032C00051F8220043EA0443184410BD10B50446E7
:1032D000BAB1107B68B1537BD27A1B0203F4E0636E
:1032E0001A43236A03EB82031A888A4202D193F9B4
:1032F000020010BD05D8013880B204330028F3D194
:10330000F7E70020F5E710B52C2104461EF0FCFD80
:10331000204610BD30B58BB00446BDF8605008950E
:10332000BDF85C5007959DF8505006959DF84C509F
:1033300005959DF8485004959DF8445003959DF8D7
:10334000405002959DF83C500195BDF838500095CD
:103350000DF0B8FD064B2360159BE361169B2362BD
:10336000199B63621A9BA36220460BB030BD00BF5D
:1033700050520208704770477047D0E9023230B4AB
:103380004468551004EB6200D20748BF625930BC54
:1033900048BFD35818470346406830B19A681AB9F5
:1033A000D86800F0010070470120704710B5102167
:1033B00004461EF0A9FD204610BD10B54FF4C271A1
:1033C00004461EF0A1FD204610BD9830884208B585
:1033D00005D10BF06DFFBDE80840FFF769BA08BDE5
:1033E0002DE9F04F04468DB00DF088FF764B236039
:1033F0004FF480736366754B2364002504F16C0AF7
:10340000FF2304F198090AA984F8663050464FF664
:10341000FF73C4E91155C4E91355C4E91555C4E94E
:103420001755E563A566ADF8283004F1E00808F00B
:103430005FFB484609F074FB04F594774046FFF7BC
:103440007BFB3846FFF778FB614BC4F82831614BB2
:10345000C4F87051C4E95D345F4BC4E95F35F023B3
:1034600004F140002A46009329464FF4A0730390CC
:10347000FFF7FCFA0398261D4FF07F4B0146C4F876
:1034800068B0304605F058FC4FF0020250460AA9D9
:10349000ADF8282009F00DFAF0232A465046009393
:1034A00029464FF4A073FFF7E1FA5046294608F089
:1034B000DAFA5146304605F03FFC4846A122282161
:1034C000FFF7C7FA0AAA012309A94846ADF8283030
:1034D000ADF8245009F0BBF80B234846A4F8D030CF
:1034E000FFF74CFB4FF0FF33C4E9353304F5BA73F3
:1034F000C4F8C0304946304605F01EFC0DF11009F5
:1035000028224F214046FFF7A4FA41464846C4F816
:1035100010B1A4F8145108F095FD99E8070004F5DE
:103520008E7383E80700DFF8D0A0CDF828A0092328
:103530000AA94046ADF82C3009F02CF84146304637
:1035400005F0FAFB12236F2200936D217B2338468E
:10355000FFF78CFAD4F82831C4F858B1D3F8843086
:10356000A4F85C5139464846984799E8070004F5A5
:10357000B27383E80700194B1B682BB9184B194A23
:10358000602119481FF008FD184B1B88022B03D837
:10359000174B144A6121F4E7164B0221186800F01A
:1035A000D3F90A23C4F870010AA93846ADF82C30C3
:1035B000CDF828A008F0EEFF3046394605F0BCFBF8
:1035C00020460DB0BDE8F08FD052020858570208CF
:1035D00074510208B8520208CB330008082B0120AE
:1035E000E3480208E5490208604902080C2B012063
:1035F000A7490208142B01206C50020870470000F4
:1036000030B5164D8FB02C68BFF35B8F14F00104FA
:1036100021D128461EF07AFCE8B13F230993104BD4
:103620000893104B07930123CDE90543049304232A
:10363000CDE902430A230C4900931222CDE90B4441
:103640000A480A940194FFF765FE09481FF0C2FC7E
:1036500028461EF067FC05480FB030BD641C0020F2
:103660000C8A0208208A02081C850208681C0020B7
:10367000FD3500087047000030B5174D8FB02C683D
:10368000BFF35B8F14F0010422D128461EF03EFCEC
:10369000F0B13F230993114B0893114B079301237A
:1036A000CDE9054304930423CDE902430F230D49DB
:1036B00000931B221223CDE90B440B480A9401947A
:1036C000FFF728FE09481FF085FC28461EF02AFC5B
:1036D00005480FB030BD00BF941C0020108A0208BE
:1036E000248A020818860208981C002075360008F3
:1036F0007047000030B5164D8FB02C68BFF35B8F5C
:1037000014F0010421D128461EF000FCE8B13F234B
:103710000993104B0893104B07930123CDE9053310
:1037200004930423CDE9024314230C4900931A2285
:10373000CDE90B440A480A940194FFF7EBFD0948D0
:103740001FF048FC28461EF0EDFB05480FB030BDC9
:10375000C41C0020148A0208288A020894870208E0
:10376000C81C0020F13600087047000030B5174D26
:103770008FB02C68BFF35B8F14F0010422D1284670
:103780001EF0C4FBF0B13F230993114B0893114B7A
:1037900007930123CDE9054304930423CDE90243B4
:1037A00028230D49009313222923CDE90B440B480C
:1037B0000A940194FFF7AEFD09481FF00BFC284660
:1037C0001EF0B0FB05480FB030BD00BFF41C002058
:1037D000188A0208388A020800890208F81C0020AA
:1037E0006937000800207047002070470EB403B509
:1037F00003AB002153F8042B01930CF0E1FD02B060
:103800005DF804EB03B070470CB407B504AB53F894
:10381000042B01930CF0D4FD03B05DF804EB02B06F
:1038200070470000436C10B5044673B3038F2BB987
:10383000184B194AC52119481FF0AEFBC38E00EB87
:1038400043035B8C0BB30EF05EFC238F012B03D87C
:10385000134B144ACB21EEE7E28E531C9BB2092B8B
:10386000194688BFA3F10A0104EB410140F63F105D
:10387000498C814209D10A2B04EB420228BF002364
:1038800004EB4303508C588451842046BDE810401B
:103890000EF03CBB334A02083C4A0208E74A0208E1
:1038A000314B02083F4B02080EF0F7BA10B586B054
:1038B00002AC84E806001A460AAB05930193099B03
:1038C00000932146089B0BF075F806B010BD000070
:1038D00038B518BB124B13481C681349B4B12268A1
:1038E00022440260626822440A60A26814440F4BBA
:1038F00000221A8000F038F8054600F033F80C4B2F
:103900001C600C4B1D600C4B188007E00B4B0360D8
:103910000B4B0B600B4B1C68002CE8D138BD00BF73
:10392000301D0020281D0020241D00202C1D0020FB
:10393000082B0120102B01200C2B01206C8A02087F
:103940003C8A0208008B0208044B1B6853F82100D4
:10395000034B1B6803EB4000704700BF241D002091
:10396000281D00200C20704700487047341D00209F
:1039700010B5FFF7BFFE064C2060FFF7F7FE606052
:10398000FFF73EFEA060FFF777FEE06010BD00BFCE
:10399000341D002010B5002404600C6014601C600D
:1039A00010BD704710B54FF4AE7104461EF0ACFA6E
:1039B000204610BD10B50446D0F8580100F05EFB5B
:1039C0002046BDE810400BF0F5BC000010B50446E1
:1039D000FEF72AFF014B2360204610BD0453020866
:1039E000704704387047704710B5102104461EF028
:1039F0008BFA204610BDA0F10400F5E7002282609A
:103A0000024A026018324260C1607047585302088F
:103A1000836859607047704710B5034B03600446D4
:103A2000FEF799FF204610BD8053020810B50446EA
:103A3000FFF7F2FF204640F21C511EF065FA2046C7
:103A400010BD000010B50446FFF7DAF80B4B2360F9
:103A500004F59F634FF080421A600023C4F80035DC
:103A6000C4F80435C4F80835C4F80C35C4F810356A
:103A7000C4F8143584F81B35204610BD8053020865
:103A800030B5DDE904540698284488420DDD194418
:103A9000A9420ADD079B2344934206DD039BD0180D
:103AA000A042D4BF0020012030BD0020FCE7000070
:103AB0000B4A10B408460B4C116843F2390304FB5F
:103AC0000133136051221B0CB3FBF2F102FB1133E3
:103AD00002685DF8044B526B553B19B2104700BFAA
:103AE000140000206D4EC64190F81B3583F0010391
:103AF00080F81B35012380F81A35704738B5044625
:103B0000FEF72AFF04F59F63002504F5A0604FF03F
:103B100080421A6004212B462C4AA4F81A55C4F896
:103B2000FC54C4F89C040FF097F804F254400CF0D5
:103B300071FD274B254A1B6804F5A1600421C4F8D8
:103B400048030FF089F804F540700CF063FDB4F9F8
:103B50002E2407EE902AF8EEE77A04F59E63C3ED73
:103B6000007A04F2F44300221A6004F53570A4F8D8
:103B7000EC5484F8F95204F1C4050CF04BFDB4F98F
:103B8000CA2028464FF4A071FEF763FF294620465D
:103B900004F5BA75FFF78CFFB4F97A21284640F294
:103BA0000D21FEF756FF2946204604F50975FFF75B
:103BB0007FFF2846B4F92A2240F2DA21FEF749FFB6
:103BC00029462046BDE83840FFF772BF114C020875
:103BD000441D002030B5012385B0044680F8EC3444
:103BE00021488DF8073000231A460DF107010068BF
:103BF00003F00DF904F553751C4B02932846B4F8F5
:103C00008034ADF80C3002A908F0C4FC04F5A260C1
:103C1000D4F8FC34164AC4F8940304210FF01CF8BD
:103C20002846144D0CF0F6FCD4F8FC142B6899428D
:103C300003DDE06B2960FFF7EBFE04F5A1602B6864
:103C40000B4AC4F8480304210FF006F804F540704D
:103C50000CF0E0FC012384F8F93204F535700CF027
:103C6000D9FC05B030BD00BF301A00206C500208EE
:103C7000114C0208441D00202DE9F04F0B68B0F9EB
:103C80002E24B0F92C74B0F93084B0F93294DB6989
:103C9000B1F904A0B1F906B08BB00446079208460A
:103CA0000D4698470646002800F08F80B0F90A308C
:103CB0000493B0F908300393B0F90630079A5B44D7
:103CC0000293B0F904305344CDE90093394643469A
:103CD0002046FFF7D5FE28B120460BB0BDE8F04FD7
:103CE000FFF778BFB669002E6FD0B6F90A3004939B
:103CF000B6F908300393B6F906305B440293B6F97F
:103D000004305344CDE90093394643462046FFF73B
:103D1000B7FE07900028DFD1B369002B55D0B3F967
:103D20000A100491B3F908100391B3F9061059442D
:103D30000291B3F904305344CDE900933946434628
:103D40002046FFF79DFE00283FD0214E3368AB424E
:103D50003BD0D4F8FC341F480133C4F8FC340123B1
:103D60008DF82730079B00681A460DF1270103F0F4
:103D70004EF8D4F8FC140C2291FBF2F302FB13135F
:103D800004F59F6253B9D2ED007AB6EE007A77EE71
:103D9000877A2046C2ED007AFFF7A6FE92ED007A00
:103DA0003560F1EE047AB4EEE77AF1EE10FAC8BFAE
:103DB000C2ED007A0B46084A042104F5A0600EF01B
:103DC0004BFF04F254400CF025FC0BB0BDE8F08F23
:103DD00018000020301A0020114C020890F8EC3432
:103DE0002DE9F3410446C3B3B0F93234C3F1F00313
:103DF00007EE903A00F59E6292ED007AF8EEE77ACF
:103E0000B4EEE77AF1EE10FA40F1278100F2F443C4
:103E1000D3ED006A9FED926A76EE866A00F58565BD
:103E200037EE267AC3ED006AB4EEE77AF1EE10FAC7
:103E3000D8BFF0EE477AC2ED007AFDEEE77AB0F92E
:103E40002C1417EE903A28461AB2FDF77CFA284651
:103E500002B0BDE8F0410CF0DDBB824A8DF80730BE
:103E6000106890B11A460DF1070103F001F860B92E
:103E70009DF80730012B08D194F8ED240AB984F895
:103E8000ED3404F2F443784A1A6094F8ED34002BD0
:103E900000F0E38094F81A35002B40F0C68094F8C7
:103EA000EC34002B40F0D98004F2F443D3ED007AD7
:103EB0009FED6B7A04F59E6577EE877A95ED007A33
:103EC000C3ED007A77EE877A9FED687AF4EEC77AD1
:103ED000F1EE10FA44BF85ED007A83ED007AB4F973
:103EE000323458BFC5ED007A06EE903A48BFF0EE86
:103EF000477AF8EEE66A9FED5E7A37EE667AB4EEC0
:103F0000E77AF1EE10FA04D885ED007A2046FFF743
:103F100061FED5ED007AB4F92C14FDEEE77A04F5D4
:103F2000856017EE903A05461AB2FDF70CFA28465E
:103F30000CF070FBB4F9C83007EE903A04F59F68B6
:103F4000F8EEE77A98ED007AB4F9CC3077EEC77ADC
:103F500004F1C406FDEEE77A17EE905AEB4206D55F
:103F6000B4F9285231462046CD35FFF7A1FD29B2DC
:103F7000B4F9CA203046FDF7E6F930460CF04AFBAA
:103F8000B4F9783198ED007A07EE903AF8EEE77AD6
:103F9000B4F97C3177EEC77A04F5BA77FDEEE77AAB
:103FA00017EE905AEB4206D5B4F9C8503946204670
:103FB000CD35FFF77DFD29B2B4F97A213846FDF7FA
:103FC000C2F938460CF026FBB4F9283298ED007A95
:103FD00007EE903AF8EEE77AB4F92C3277EEC77A2A
:103FE00004F50978FDEEE77A17EE905AEB4206D514
:103FF000B4F9785141462046CD35FFF759FDB4F963
:104000002A2229B24046FDF79EF940460CF002FBF9
:1040100031462046FFF730FE39462046FFF72CFE9A
:1040200041462046FFF728FE17E094F81B3584F838
:10403000913083F0010284F8BD2004F198000CF067
:10404000E9FA04F16C000CF0E5FA002384F81A3563
:1040500094F8ED34002B7FF422AF02B0BDE8F0817C
:10406000CDCC4C3E341A0020000080C0000000007F
:10407000000070430022C0E900227047704770477B
:1040800004387047704710B5102104461DF03CFFFE
:10409000204610BDA0F10400F5E700000022826078
:1040A000024A026018324260C1607047B45302088D
:1040B000836858687047704710B5034B0360044627
:1040C000FFF759F9204610BDDC53020810B504462D
:1040D000FFF7F2FF20464FF4C8711DF015FF204690
:1040E00010BD000010B50446FFF77AF9014B2360BC
:1040F000204610BDDC53020810B50446FFF73CF91A
:10410000E06BFFF7D5FF034604F5C270C4F87001F9
:10411000044A05210EF0A0FD04F59470BDE810409E
:104120000CF078BA114C0208F02070474FF4A070E0
:1041300070472920FDF714BE2820FDF711BE08B5F1
:10414000FDF7E2FDCA20FDF70BFEC320FDF7ECFDF5
:104150000820FDF7E9FD5020FDF7E6FDCF20FDF733
:10416000FFFD0020FDF7E0FDC120FDF7DDFD302063
:10417000FDF7DAFDED20FDF7F3FD6420FDF7D4FD3A
:104180000320FDF7D1FD1220FDF7CEFD8120FDF7C4
:10419000CBFDE820FDF7E4FD8520FDF7C5FD0020FF
:1041A000FDF7C2FD7820FDF7BFFDCB20FDF7D8FD60
:1041B0003920FDF7B9FD2C20FDF7B6FD0020FDF7F5
:1041C000B3FD3420FDF7B0FD0220FDF7ADFDF72073
:1041D000FDF7C6FD2020FDF7A7FDEA20FDF7C0FD95
:1041E0000020FDF7A1FD0020FDF79EFDB120FDF7A9
:1041F000B7FD0020FDF798FD1B20FDF795FDB620CB
:10420000FDF7AEFD0A20FDF78FFDA220FDF78CFD26
:10421000C020FDF7A5FD1020FDF786FDC120FDF7AC
:104220009FFD1020FDF780FDC520FDF799FD45207D
:10423000FDF77AFD1520FDF777FDC720FDF790FD0E
:104240009020FDF771FD3620FDF78AFDC820FDF7AF
:104250006BFDF220FDF784FD0020FDF765FDB02029
:10426000FDF77EFDC220FDF75FFDB620FDF778FD6E
:104270000A20FDF759FDA720FDF756FD2720FDF781
:1042800053FD0420FDF750FD2A20FDF769FD0020B5
:10429000FDF74AFD0020FDF747FD0020FDF744FD36
:1042A000EF20FDF741FD2B20FDF75AFD0020FDF723
:1042B0003BFD0020FDF738FD0120FDF735FD3F20D7
:1042C000FDF732FDF620FDF74BFD0120FDF72CFD3B
:1042D0000020FDF729FD0620FDF726FD2C20FDF727
:1042E0003FFDC820FDF788FD2620FDF739FD0120A0
:1042F000FDF71AFDE020FDF733FD0F20FDF714FD5B
:104300002920FDF711FD2420FDF70EFD0C20FDF7FF
:104310000BFD0E20FDF708FD0920FDF705FD4E20E1
:10432000FDF702FD7820FDF7FFFC3C20FDF7FCFCCB
:104330000920FDF7F9FC1320FDF7F6FC0520FDF739
:10434000F3FC1720FDF7F0FC1120FDF7EDFC002039
:10435000FDF7EAFCE120FDF703FD0020FDF7E4FC9A
:104360001620FDF7E1FC1B20FDF7DEFC0420FDF725
:10437000DBFC1120FDF7D8FC0720FDF7D5FC312030
:10438000FDF7D2FC3320FDF7CFFC4220FDF7CCFC3B
:104390000520FDF7C9FC0C20FDF7C6FC0A20FDF73F
:1043A000C3FC2820FDF7C0FC2F20FDF7BDFC0F202B
:1043B000FDF7BAFC1120FDF7D3FCC820FDF71CFD6A
:1043C0002920FDF7CDFCBDE808402C20FDF7C8BC36
:1043D00008B5FDF799FC0321D320FDF7DDFC80B281
:1043E00008BD10B5C4B2022203212046FDF744FCEB
:1043F0000A20FDF787FC204600220321FDF73CFC44
:10440000BDE810400220FDF77DBC38B50446E4B29B
:10441000FDF730FC00212046FDF744FC0121054654
:104420002046FDF73FFC40EA052080B238BD10B5BC
:10443000C4B240212046FDF735FC030607D54C21C8
:104440002046FDF72FFC003818BF012010BD0122C7
:104450004B212046FDF710FC204600224B21FDF7A2
:104460000BFC0020F2E773B50423C4B20E461546D8
:10447000D7210DEB03022046FDF72EFC019B1BBA52
:104480001A0DC3F30B23328020462B8001224B21CF
:10449000FDF7F2FB00224B212046FDF7EDFB02B0B9
:1044A00070BD000010B50A4A1378984204460DD03A
:1044B000517888420AD00BB141B90123D454FDF799
:1044C000D9FB2046BDE81040FFF78BBF10BD00BFF1
:1044D000481D002010B5C4B209212046FDF7E2FBBB
:1044E00040F00102D2B220460921BDE81040FDF79C
:1044F000C3BB10B5C4B209212046FDF7D3FB092187
:1045000000F0FE022046BDE81040FDF7B5BB38B50F
:10451000C4B20D4620460A21FDF7C4FB40EA05025D
:10452000D2B220460A21BDE83840FDF7A5BB10B540
:104530000446FDF7A0FB20461F21FFF7E8FF2046B9
:10454000BDE81040FFF7C6BF38B5C4B20D462046DF
:104550000A21FDF7A7FB20EA0502D2B220460A2174
:10456000BDE83840FDF788BB10B50446FFF7C1FF32
:1045700020461F21BDE81040FFF7E6BF10B5C0B2CE
:104580000C460B21FDF78EFB204010BD1F21FFF7CD
:10459000F5BF0A46C0B20B21FDF76EBB1F21FFF726
:1045A000F8BF38B5C4B20D4620461721FDF77AFB97
:1045B00020EA0502D2B220461721BDE83840FDF7B7
:1045C0005BBB70B5C4B2064604212046FDF76AFB0A
:1045D000042100F0FB0205462046FDF74DFB304666
:1045E000F021FFF7DEFF05F0F80220460421FDF779
:1045F00043FB492220212046FDF73EFB0220FDF728
:1046000081FB204601222121FDF736FB20469A221C
:104610004121FDF731FB204601224A21FDF72CFB09
:10462000204601224B21FDF727FB204600224B218B
:10463000FDF722FB204601225621FDF71DFB2046F7
:1046400001225821FDF718FB204601224021FDF7E9
:1046500013FB2046FF220B21FDF70EFBBDE8704047
:104660000220FDF74FBB0000054BD3F8882042F431
:104670007002C3F888204FF000629A60704700BF54
:1046800000ED00E008B50B4B1A6842F400721A60A6
:104690001A6842F480621A601A6842F480721A60E2
:1046A000032000F02FF80020FDF7E6FDFDF7B2FB38
:1046B000002008BD003C0240034A044B11681B78EF
:1046C0000B441360704700BF4C1D00208000002089
:1046D000014B1868704700BF4C1D002038B50446D8
:1046E000FFF7F6FF631C1CBF054B1B78054618BF80
:1046F000E418FFF7EDFF431BA342FAD338BD00BF18
:10470000800000200749CA6822F4E0620302120414
:1047100003F4E063120C134343F0BF6343F400332C
:10472000CB60704700ED00E0164B30B5DC68C4F399
:104730000224C4F10703251D042B28BF0423062DE2
:104740004FF0FF358CBF033C002405FA03F321EA48
:104750000303A54022EA0502A340002843EA02031E
:10476000ACBF00F16040084A4FEA0313B8BF00F045
:104770000F00DBB2AABF00F56140135480F800338C
:1047800030BD00BF00ED00E014ED00E0002807DBC5
:10479000044A4109012300F01F00834042F8213000
:1047A000704700BF00E100E010B5044650B1437906
:1047B00003F0FF0213B90271FDF74CFB0123637193
:1047C000002010BD0120FCE710B5044620B390F88E
:1047D000393003F0FF021BB980F83820FDF752FB97
:1047E000022384F83930236861681A6822F4403261
:1047F0000A431A605A6BA16822F007020A435A63FF
:104800001A6CE1686FF30D020A431A640020012359
:10481000E06384F8393010BD0120FCE77047704731
:10482000036870B55E681D68F207044614D5E90593
:1048300012D51A6822F480721A60C26B42F001022B
:10484000C26301229A60042380F83930002380F883
:104850003830436903B19847B20616D5AB0414D576
:1048600023681A6822F400521A6020229A60E36BCF
:1048700043F00203E363042384F83930002384F80F
:10488000383063690BB120469847300716D52905A3
:1048900014D523681A6822F400621A6008229A600C
:1048A000E36B43F00403E363042384F8393000230B
:1048B00084F8383063690BB12046984772070BD5EE
:1048C0006B0509D523681A6822F480621A600422F5
:1048D0009A602046FFF7A2FFB00714D5A90512D5AC
:1048E00023681A6822F400721A6002229A60E36B4D
:1048F000E363012384F83930002384F838302369D6
:104900000BB120469847F20613D5EB0411D5236866
:104910001A6822F480521A6010229A60E36BE363F3
:10492000012384F83930002384F838302046FFF71B
:1049300076FF70BDF0B590F83820012A03464FF09D
:1049400002002BD0012283F8382083F8390003EBD2
:104950000112D2E90740556A174E44EA0040093C6B
:10496000012C9CBF05F07F4210434FEA01171A68E3
:1049700088BF40EA056091B9516A314001435162F4
:10498000012C9969916103D8596A21F07F419162A4
:104990000122002083F8392083F83800F0BDD16966
:1049A00031400143D161D919012C896911619CBF42
:1049B00025F07F451562EBE7F0FFFC002DE9F74F8E
:1049C000DFF8BC916C4A00230D6801249C4004EA86
:1049D0000506AC4340F0B7804D68032705F003049B
:1049E0004FEA430807FA08FC671E012F6FEA0C0C18
:1049F00034D8876807EA0C0ECF6807FA08F747EA49
:104A00000E078760476827EA060EC5F300179F4028
:104A100047EA0E074760C76807EA0C0E8F6807FA77
:104A200008F747EA0E07022CC76019D14FEAD30AEC
:104A300000EB8A0A03F0070BDAF820704FEA8B0BC1
:104A40004FF00F0E0EFA0BFE27EA0E0E0F6907FA53
:104A50000BF747EA0E07CAF8207001E0032CDAD101
:104A6000076804FA08F407EA0C073C4315F4403FD2
:104A7000046068D000240194D9F8444044F4804490
:104A8000C9F84440D9F8444023F0030707F18047B0
:104A900004F4804407F59C37019403F0030C019C57
:104AA000D7F808E04FEA8C0C0F2404FA0CF42EEA35
:104AB000040E324CA0424DD004F58064A0424BD08D
:104AC00004F58064A04249D004F58064A04247D038
:104AD00004F58064A04245D004F58064A04243D030
:104AE00004F58064A04241D004F58064A0423FD028
:104AF00004F58064A0423DD004F58064A04214BF58
:104B00000A24092404FA0CF444EA0E04BC609468F4
:104B1000F74315F4801F0CBF3C4034439460D468C5
:104B200015F4001F0CBF3C403443D460546815F4A6
:104B3000003F0CBF3C40344354601468ED0354BF45
:104B40003C40344314600133102B7FF43DAF03B07D
:104B5000BDE8F08F0024D5E70124D3E70224D1E794
:104B60000324CFE70424CDE70524CBE70624C9E7D7
:104B70000724C7E70824C5E7003C014000000240C5
:104B80000038024000690840003818BF0120704713
:104B90000AB1816170470904FBE7436901EA030236
:104BA00021EA030141EA024181617047044A5169E7
:104BB000014208B502D05061FDF73EF808BD00BFC4
:104BC000003C014001684B6913F480634FF0000220
:104BD00010D06FF480634B612023026380F83D3076
:104BE00080F83E20036C80F83C2043F0040303640B
:104BF00001207047184670472DE9F84606460F46D3
:104C000091461D464FEA114A3368BAF1010F39D176
:104C10005C6927EA0404A4B2B4FA84F46409A145E7
:104C200001D0002024E06A1CEFD0FFF751FD089B63
:104C3000C01AA84201D8002DE6D1BAF1010F33689D
:104C400018D15B6927EA03039BB2B3FA83F35B09CC
:104C50009945D9D100232022336386F83D2086F878
:104C60003E30326C86F83C3042F020023264012043
:104C7000BDE8F8869B69DB43C3F3400383F001037F
:104C8000DBB2E5E79C69E443C4F3400484F001042B
:104C9000E4B2C4E72DE9F04104460F4616469846B3
:104CA0002568686927EA000080B2C0B16B695A05BF
:104CB00017D52B6843F400732B606FF480636B612E
:104CC00020220023236384F83D2084F83E30236CA7
:104CD00043F004032364002384F83C300120BDE842
:104CE000F081731CDDD0FFF7F3FCA0EB0800B042AD
:104CF00001D8002ED4D123685A6927EA020292B261
:104D0000002ACDD000232022236384F83D2084F89C
:104D10003E30236C1343DDE770B504460D4616465E
:104D200023685B691B0601D500201EE02046FFF7C3
:104D300049FFC8B96A1CF3D0FFF7CAFC801BA84220
:104D400001D8002DECD123685B6913F08003E7D113
:104D50002022236384F83D2084F83E30226C84F8BE
:104D60003C3042F020022264012070BD2DE9F04366
:104D70001546026885B0DDE90C789946136843F45E
:104D8000807313600E463B46CDF8008000224FF042
:104D900001110446FFF730FF236838B11B68DB05BB
:104DA00002D54FF400732364032620E006F0FE06CC
:104DB0001E611A4943463A462046FFF76BFFA8B9E1
:104DC000236803905A6903929B69039342463946CC
:104DD0002046039BFFF7A0FF064660B1236C042B1F
:104DE00001BF2268136843F4007313600126304644
:104DF00005B0BDE8F083B9F1010F236802D1EDB22F
:104E00001D61F4E72A0A1A61394642462046FFF737
:104E100083FF0028E2D12368F1E700BF0200010010
:104E20002DE9FF479A46036815461A6842F48062E6
:104E30001A601A68DDE90C7842F480721A600E4636
:104E40003B46CDF8008000224FF001110446FFF7E9
:104E5000D3FE236838B11B68DB0544BF4FF40073F1
:104E60002364032021E05FFA86F906F0FE061E6146
:104E70002A4943463A462046FFF70CFFA0B923686B
:104E800003905A6903929B69039342463946204630
:104E9000039BFFF741FF58B1236C042B01BF22682D
:104EA000136843F400731360012004B0BDE8F08779
:104EB000BAF1010F23681AD1EDB242461D6139469D
:104EC0002046FFF729FF02460028E5D121680B683C
:104ED00043F480730B602046CDF800803B464FF0D2
:104EE0000111FFF789FE226860B11368B4E72A0A4E
:104EF0001A61394642462046FFF70EFF0028CBD103
:104F00002368D9E749F00103044913612046434669
:104F10003A4604B0BDE8F047FFF7BCBE020001000E
:104F200070B504460D46164623685B695B0701D5DC
:104F300000201EE02046FFF745FEC8B96A1CF3D0EA
:104F4000FFF7C6FB801BA84201D8002DECD12368D7
:104F50005B6913F00403E7D12022236384F83D202A
:104F600084F83E30226C84F83C3042F02002226407
:104F7000012070BD70B504460D46164621684B6988
:104F800013F0400301D0002011E04A69D2060FD58A
:104F90006FF010024A612022236384F83D2084F8D8
:104FA0003E30236C2364002384F83C30012070BD24
:104FB000FFF78EFB801BA84201D8002DDED12368AD
:104FC0005B6913F04003D9D12022236384F83D208C
:104FD00084F83E30236C1343E4E7000070B50446C8
:104FE00008B9012070BD90F83D3003F0FF021BB9F5
:104FF00080F83C20FCF766FF242384F83D302368CA
:105000001A6822F001021A601A6842F400421A601B
:105010001A6822F400421A6000F088FE3F4B65686F
:105020009D4294BF3E4B3F4B98428CBF00230123CF
:10503000002BD6D12268394E51683B4BB0FBF3F3BD
:1050400021F03F011943B542516088BF4FF4967675
:10505000116A88BF734321F03F0184BF4FF47A7611
:10506000B3FBF6F301330B431362D169431E2B48A4
:1050700021F44F41854221F0FF0132D86D0040F606
:10508000FC70B3FBF5F30133034242D0C3F30B03CF
:105090001943D161D4E907301168034321F0C001FD
:1050A0000B4313609168D4E9030321F403410343E4
:1050B00021F0FF010B439360D4E90530D16803432D
:1050C00021F0FF010B43D360136843F00103136029
:1050D00000202023206484F83D30206384F83E00C3
:1050E00080E7A06850B905EB4505B3FBF5F3013344
:1050F000C3F30B037BB143F40043C9E719206843B2
:10510000B3FBF0F30133C3F30B0323B143F4404388
:10511000BEE70423BCE70123BAE700BFA086010075
:105120007F841E00FF083D0040420F002DE9F74339
:10513000044699460C9E0F469046FFF7C9FA94F82C
:105140003D30202B054603D0022003B0BDE8F0839C
:1051500000903C49192301222046FFF74DFD00280D
:10516000F2D194F83C30012BEED02068012384F872
:105170003C300368D9075EBF036843F00103036056
:10518000036823F400630360212384F83D30402347
:1051900084F83E30002323640A9B6362BDF82C3000
:1051A0006385638D2385284BE3624246CDE9006524
:1051B0004B4639462046FFF7D9FD00282AD001206A
:1051C000C3E7FFF7A9FD40B1236C042B01BF2268A0
:1051D000136843F400731360F1E7636A27681A46A3
:1051E00012F8011B39616262628D218D013A92B21F
:1051F00062857A69481E80B2520720850AD548B177
:105200005A783A6102336362638D013B02399BB283
:1052100021856385238D2A4631462046002BD0D137
:10522000FFF77EFE0028CFD12268136843F4007395
:105230001360202384F83D3084F83C0084F83E005D
:1052400083E700BF020010000000FFFF2DE9F043DC
:10525000044687B09946109F0D469046FFF738FAEE
:1052600094F83D30202B064604D00225284607B08E
:10527000BDE8F08300907949192301222046FFF709
:10528000BBFC0028F1D194F83C30012BEDD0206814
:10529000012384F83C300368DB075EBF036843F0FA
:1052A00001030360036823F400630360222384F88E
:1052B0003D30402384F83E30002323640E9B63621C
:1052C000BDF83C306385638D2385654BE3622946D9
:1052D000CDE900764B4642462046FFF7A1FD054644
:1052E00008B10125C2E7228D2368A2B902905A694C
:1052F00002929A690292029A1A6842F400721A6043
:10530000238D002B2CD1202284F83D2084F83C30C2
:1053100084F83E30AAE7012A0AD11A6822F4806292
:105320001A6003905A6903929A690392039AE3E719
:10533000022A0ED11A6822F480621A601A6842F4B6
:1053400000621A6004905A6904929B690493049B5A
:10535000D6E705905A6905929B690593059BCFE7AF
:10536000032B56D8012B15D1324639462046FFF77C
:1053700001FE0028B5D123681A69636A1A70636A4E
:1053800001336362238D013B2385638D013B9BB217
:105390006385B5E7022B334900963B464FF0000288
:1053A000204619D1FFF728FC00289AD123681A68F3
:1053B00042F400721A601A69636A1A70626A531CB6
:1053C0006362238D013B2385638D013B9BB2638523
:1053D00023681B695370D2E7FFF70EFC02460028D2
:1053E0007FF47FAF2368196821F48061196019691F
:1053F000636A1970636A1B4901336362238D013B41
:105400002385638D013B9BB26385204600963B4616
:10541000C8E7324639462046FFF7ACFD00287FF446
:1054200060AF23681A69636A1A70628D616A013A13
:1054300092B24B1C628522686362238D5069013BE6
:105440009BB2400723857FF55BAF032B02BF136838
:1054500023F48063136013694B7090E7020010001F
:105460000000FFFF0400010010B590F83D30202B34
:10547000DCB216D1242380F83D3003681A6822F08C
:1054800001021A605A6A22F010025A625A6A1143E3
:1054900059621A6842F001021A6080F83D4000200B
:1054A00010BD0220FCE730B590F83D30202BDCB277
:1054B00016D10268242380F83D30136823F00103DD
:1054C0001360556A4FF6F0732B400B439BB2536247
:1054D000136843F00103136080F83D40002030BDA5
:1054E0000220FCE70068D20184328318F0B5C76857
:1054F0005D684C680E6805F470455D60C56806F12E
:10550000010CC5F30B45C7F30B472744654445EA37
:1055100007455D60C768CD68C7F30A072F449D68DB
:1055200005F470459D60D0F80CC08D68CCF30A0C72
:105530000135654445EA07459D601D69D1F810C0F5
:105540008F6925F007051D61C3F810C091F8305030
:1055500045EA076591F8317045EA072591F8327000
:1055600045EA07459D615D6925F0FF055D614D696F
:105570005D61DD6925F4E06525F00705DD61D1E9B0
:1055800007573D43DD61BCF1070F4D6A9D629CBF2B
:105590000D4D15F80C70DD6A05F0E025DD6288BF61
:1055A00001278D6AC96AA41B7C437D43033444EA06
:1055B0000544DC621C6B6FF30A041C631963835897
:1055C00043F001038350F0BD2054020838B504466F
:1055D00000284ED090F8A13003F0FF021BB980F8EC
:1055E000A020FCF7CBFC022384F8A13023689A6941
:1055F00022F070429A61D4E901200243E06899697F
:105600000243206902430A439A61D4E9051242EA3F
:1056100001429A60D4E9071242EA0142DA60D4E911
:10562000091242EA01421A61D4E90B1242EA01422C
:105630005A61DA6A94F8350094F8361002F07F4225
:10564000DA62DD6A94F834202A4342EA002242EA10
:105650000142DA625A6B42F006025A639A6942F0DA
:1056600001029A6100200123C4F8A40084F8A1304B
:1056700038BD0120FCE770477047036870B59E6B2A
:105680005D6B7207044614D5690712D55A6B22F078
:1056900004025A630422DA63D0F8A43043F0010311
:1056A000C0F8A430002380F8A12080F8A030FFF7D4
:1056B000E2FFB20716D5AB0714D523685A6B22F068
:1056C00002025A630222DA63D4F8A4301343C4F806
:1056D000A430042384F8A130002384F8A0302046AD
:1056E000FFF7C9FFF00710D5E9070ED523685A6BFD
:1056F00022F001025A630122DA63002384F8A12018
:1057000084F8A0302046FBF787FF320711D52B071E
:105710000FD523685A6B22F008025A630822DA6315
:10572000012384F8A130002384F8A0302046FFF73D
:10573000A3FF70BD2DE9F04190F8A030012B064683
:105740000F4694464FF002001FD04FF0010886F834
:10575000A08086F8A10034240D4604FB02640FCD1E
:1057600038340FC40FCD0FC40FCD0FC42B68236086
:10577000304662463946FFF7B5FE33680020C3F86D
:10578000248086F8A18086F8A000BDE8F0810000A2
:1057900090F8A020012A03464FF0020012D01A68A8
:1057A00083F8A100506B20F00100506306480164AB
:1057B000516B41F0010151630020012283F8A120C7
:1057C00083F8A000704700BF0068014037B5002390
:1057D0000193184B184D1A6C42F080521A641B6CDE
:1057E00003F080530193019B144B01221A64FEF7CE
:1057F0006FFF04466B68DA030BD5104B0E4D012288
:105800005A64FEF765FF04466B689B030AD50020C7
:1058100006E0FEF75DFF001BB0F57A7FEAD90320B2
:1058200003B030BDFEF754FF001BB0F57A7FEBD913
:10583000F5E700BF003802400070004000000E4253
:105840002DE9F341044640B30368DE0710D4236812
:105850009D075BD42368190700F19D8023685A07D0
:1058600000F1BD80A369002B40F0248100202CE0D2
:105870008D4B9A6802F00C02042A07D09A6802F055
:105880000C02082A0BD15B68590208D5864B1B68AD
:105890009A03DCD56368002BD9D1012015E0636839
:1058A000814DB3F5803F13D12B6843F480332B60D7
:1058B000FEF70EFF7C4E054633689B03C7D4FEF708
:1058C00007FF401B6428F7D9032002B0BDE8F08130
:1058D000B3F5A02F04D12B6843F480232B60E3E7BA
:1058E0002A6822F480322A602A6822F480222A6000
:1058F000002BDDD1FEF7ECFE06462B689F03A6D5F4
:10590000FEF7E6FE801B6428F7D9DDE7664B9A6850
:1059100012F00C0F07D09A6802F00C02082A11D17D
:105920005B685D020ED4604A1368990702D5E3688C
:10593000012BB2D11368216923F0F80343EAC103B4
:10594000136087E7E268594BB2B101221A60FEF793
:10595000BFFE554D06462B689B0707D52B6822696D
:1059600023F0F80343EAC2032B6073E7FEF7B0FEAF
:10597000801B0228EFD9A7E71A60FEF7A9FE4A4E5E
:10598000054633689F077FF565AFFEF7A1FE401B14
:105990000228F6D998E76269444B82B10122C3F824
:1059A000802EFEF795FE404E0546736F9B073FF530
:1059B00055AFFEF78DFE401B0228F6D984E7C3F8E9
:1059C000802EFEF785FE384E0546736F9F077FF5E4
:1059D00045AFFEF77DFE401B0228F6D974E7324B37
:1059E0001A6C12F0805228D101921A6C42F0805247
:1059F0001A641B6C03F080530193019B01272C4D0B
:105A00002B68D8051BD5A368274D012B27D12B6FF9
:105A100043F001032B67FEF75BFE234E054641F280
:105A20008838336F9A0739D5002F3FF41BAF1E4AD1
:105A3000136C23F08053136414E70027DFE72B680F
:105A400043F480732B60FEF743FE06462B68D905AE
:105A5000D9D4FEF73DFE801B0228F7D934E7052B89
:105A600004D12B6F43F004032B67D0E72A6F22F099
:105A700001022A672A6F22F004022A67002BCAD18A
:105A8000FEF726FE41F2883806462B6F9B07CBD5E2
:105A9000FEF71EFE801B4045F7D915E7FEF718FEFE
:105AA000401B4045BDD90FE7003802400000474287
:105AB00000700040374DAA6802F00C02082A3ED060
:105AC000022B354B4FF000021A662BD1FEF700FE79
:105AD00006462B6899011FD4D4E907321343626A42
